:04000000A4EF06F073
:100800000001000A006400E803102754656D703A87
:10081000202564204320202000436F6F6C696E67A1
:100820003A204F4E200048656174696E673A204F48
:100830004E20005374617274696E672E2E2E000074
:100840001B0E1E6E000E1F6E8CD0250E2418D8B401
:1008500009D017C0D9FF18C0DAFF24C0DFFF174A3C
:10086000182A7FD0000E206E19C0F6FF1AC0F7FFBD
:10087000194A1A2A0800F5CF24F02450000AD8B4E7
:100880007CD0640AD8B403D00D0AD8A46AD01EC0A4
:10089000D9FF1FC0DAFFDECF22F0DDCF23F0020E3A
:1008A0001E26000E1F2223AE06D0030E2012226C3D
:1008B000231ED8B0232A010E246E050E2418D8B4A6
:1008C00012D02450020D010EF324F66E080EF4200F
:1008D000F76E0900F550225C0900F5502358D8A0A6
:1008E00002D0242AEAD720C01DF0030E1D16D8B46A
:1008F00008D017C0D9FF18C0DAFF2D0EDF6E174AD7
:10090000182A24C021F029D02150020D010EF32411
:10091000F66E080EF420F76E0900F5CF0DF00A0010
:10092000F5CF0EF022C00BF023C00CF0FBEC05F06D
:100930000BC012F00CC013F0000E156E0A0E146EF0
:100940004DEC06F01250300F246E17C0D9FF18C0BE
:10095000DAFF24C0DFFF174A182A21062128D8A46D
:10096000D3D719C0F6FF1AC0F7FF194A1A2A080090
:10097000F5CF24F02450D8A468D717C0D9FF18C0E9
:10098000DAFF000EDF6E1200000E946E8B908B92D9
:100990009CEC06F0C8EC05F0010E036E010E81EC34
:1009A00006F0330E026E080E036E24EC06F01A0EEB
:1009B000266E5E0E256E6E0EE82EFED7252EFCD717
:1009C000262EFAD700D0010E4FEC05F08FEC06F082
:1009D00001C005F002C006F0010E086EF40E076EAD
:1009E0006EEC06F005C00BF006C00CF0030E0E6EA8
:1009F0000D68FBEC05F00BC037F00CC038F0270E8B
:100A0000176E000E186E0B0E196E080E1A6E37C098
:100A10001BF038C01CF020EC04F0010E036E010E38
:100A200081EC06F0270E026E000E036E24EC06F039
:100A300038BE14D0385004E11F0E375CD8A00ED059
:100A40008B808B92010E036E020E81EC06F0190E64
:100A5000026E080E036E24EC06F015D038BE06D0E8
:100A6000385011E11E0E375CD8B00DD08B908B82C0
:100A7000010E036E020E81EC06F0260E026E080EC9
:100A8000036E24EC06F0070E266E580E256E5A0EE5
:100A9000E82EFED7252EFCD7262EFAD797D7026E42
:100AA0008C9002A802D08C8401D08C9402AA02D02F
:100AB0008C8601D08C9602AC02D08C8801D08C98A8
:100AC00002AE02D08C8A01D08C9A8C82420EE82E23
:100AD000FED700D08C9202A002D08C8401D08C94DE
:100AE00002A202D08C8601D08C9602A402D08C88FF
:100AF00001D08C9802A602D08C8A01D08C9A8C826C
:100B0000420EE82EFED700D08C920D0E016EFC0E28
:100B1000E82EFED7012EFCD71200016E8C8001A8B2
:100B200002D08C8401D08C9401AA02D08C8601D092
:100B30008C9601AC02D08C8801D08C9801AE02D08A
:100B40008C8A01D08C9A8C82420EE82EFED700D07F
:100B50008C9201A002D08C8401D08C9401A202D08E
:100B60008C8601D08C9601A402D08C8801D08C9800
:100B700001A602D08C8A01D08C9A8C82420EE82E7B
:100B8000FED700D08C92530EE82EFED700F0120054
:100B9000000E956E030E046E8A0E036E560EE82E3E
:100BA000FED7032EFCD7042EFAD7030E4FEC05F028
:100BB000210E036E760EE82EFED7032EFCD700D052
:100BC000030E4FEC05F0070E036E7D0EE82EFED7E8
:100BD000032EFCD700F0030E4FEC05F0020E4FEC95
:100BE00005F0280E4FEC05F00C0E4FEC05F0010E51
:100BF0004FEC05F01200000E106E000E0F6E0D503F
:100C00000E10D8B41CD0010E116E04D0D8900D3641
:100C10000E36112A0EAEFAD7D8900F3610360D5078
:100C20000B5C0E500C58D8A005D00D500B5E0E502A
:100C30000C5A0F80D8900E320D32112EEDD70FC006
:100C40000BF010C00CF0120014D002C0F6FF03C06D
:100C5000F7FFF86A070EF76403D00800F55005D0D7
:100C6000F6CFE9FFF7CFEAFFEF508DEC05F0024A2F
:100C7000032A02C0F6FF03C0F7FFF86A070EF76405
:100C800003D00800F55005D0F6CFE9FFF7CFEAFF13
:100C9000EF500009D8B41200D8D714501510D8B4AA
:100CA00018D0010E166E04D0D89014361536162AB8
:100CB00015AEFAD71450125C15501358D8A004D0B2
:100CC0001450125E1550135AD89015321432162E45
:100CD000F1D712C012F013C013F012000550070232
:100CE000F3CF09F0F4CF0AF005500802F3500A26BA
:100CF00006500702F3500A2609C005F00AC006F0A4
:100D00001200046E0404D8A405D003507F0F4FECEA
:100D100005F012000350BF0F4FEC05F01200C28225
:100D2000C2B2FED7C450046E036AC3500324016EDE
:100D3000000E0420026E120092800E0EC16E010E93
:100D4000C26EB60EC06E1200000EF86E0001C4EF47
:020D500004F0AD
:020000040020DA
:08000000FFFFFFFFFFFFFFFF00
:020000040030CA
:0E000000040C191EFF8181FF0FC00FE00F409E
:00000001FF
